{
  "contractName": "Array",
  "abi": [
    {
      "inputs": [
        {
          "internalType": "uint256",
          "name": "",
          "type": "uint256"
        }
      ],
      "name": "arr",
      "outputs": [
        {
          "internalType": "uint256",
          "name": "",
          "type": "uint256"
        }
      ],
      "stateMutability": "view",
      "type": "function"
    },
    {
      "inputs": [
        {
          "internalType": "uint256",
          "name": "",
          "type": "uint256"
        }
      ],
      "name": "arr2",
      "outputs": [
        {
          "internalType": "uint256",
          "name": "",
          "type": "uint256"
        }
      ],
      "stateMutability": "view",
      "type": "function"
    },
    {
      "inputs": [
        {
          "internalType": "uint256",
          "name": "",
          "type": "uint256"
        }
      ],
      "name": "myFixedSizeArr",
      "outputs": [
        {
          "internalType": "uint256",
          "name": "",
          "type": "uint256"
        }
      ],
      "stateMutability": "view",
      "type": "function"
    },
    {
      "inputs": [
        {
          "internalType": "uint256",
          "name": "i",
          "type": "uint256"
        }
      ],
      "name": "get",
      "outputs": [
        {
          "internalType": "uint256",
          "name": "",
          "type": "uint256"
        }
      ],
      "stateMutability": "view",
      "type": "function"
    },
    {
      "inputs": [],
      "name": "getArr",
      "outputs": [
        {
          "internalType": "uint256[]",
          "name": "",
          "type": "uint256[]"
        }
      ],
      "stateMutability": "view",
      "type": "function"
    },
    {
      "inputs": [
        {
          "internalType": "uint256",
          "name": "i",
          "type": "uint256"
        }
      ],
      "name": "push",
      "outputs": [],
      "stateMutability": "nonpayable",
      "type": "function"
    },
    {
      "inputs": [],
      "name": "pop",
      "outputs": [],
      "stateMutability": "nonpayable",
      "type": "function"
    },
    {
      "inputs": [],
      "name": "getLength",
      "outputs": [
        {
          "internalType": "uint256",
          "name": "",
          "type": "uint256"
        }
      ],
      "stateMutability": "view",
      "type": "function"
    },
    {
      "inputs": [
        {
          "internalType": "uint256",
          "name": "index",
          "type": "uint256"
        }
      ],
      "name": "remove",
      "outputs": [],
      "stateMutability": "nonpayable",
      "type": "function"
    }
  ],
  "bytecode": "0x60806040526040518060600160405280600160ff168152602001600260ff168152602001600360ff16815250600190600361003b92919061004e565b5034801561004857600080fd5b506100bd565b82805482825590600052602060002090810192821561008f579160200282015b8281111561008e578251829060ff1690559160200191906001019061006e565b5b50905061009c91906100a0565b5090565b5b808211156100b95760008160009055506001016100a1565b5090565b610545806100cc6000396000f3fe608060405234801561001057600080fd5b50600436106100935760003560e01c8063959ac48411610066578063959ac48414610144578063a4ece52c14610160578063be1c766b1461016a578063edf0099b14610188578063fb8cbced146101b857610093565b806338a067ce146100985780634cc82215146100c857806371e5ee5f146100e45780639507d39a14610114575b600080fd5b6100b260048036038101906100ad9190610354565b6101d6565b6040516100bf9190610437565b60405180910390f35b6100e260048036038101906100dd9190610354565b6101f1565b005b6100fe60048036038101906100f99190610354565b610216565b60405161010b9190610437565b60405180910390f35b61012e60048036038101906101299190610354565b61023a565b60405161013b9190610437565b60405180910390f35b61015e60048036038101906101599190610354565b610261565b005b61016861028d565b005b6101726102b7565b60405161017f9190610437565b60405180910390f35b6101a2600480360381019061019d9190610354565b6102c3565b6040516101af9190610437565b60405180910390f35b6101c06102e7565b6040516101cd9190610415565b60405180910390f35b600281600a81106101e657600080fd5b016000915090505481565b60008181548110610205576102046104c4565b5b906000526020600020016000905550565b6000818154811061022657600080fd5b906000526020600020016000915090505481565b600080828154811061024f5761024e6104c4565b5b90600052602060002001549050919050565b600081908060018154018082558091505060019003906000526020600020016000909190919091505550565b600080548061029f5761029e610495565b5b60019003818190600052602060002001600090559055565b60008080549050905090565b600181815481106102d357600080fd5b906000526020600020016000915090505481565b6060600080548060200260200160405190810160405280929190818152602001828054801561033557602002820191906000526020600020905b815481526020019060010190808311610321575b5050505050905090565b60008135905061034e816104f8565b92915050565b60006020828403121561036a576103696104f3565b5b60006103788482850161033f565b91505092915050565b600061038d83836103f7565b60208301905092915050565b60006103a482610462565b6103ae818561047a565b93506103b983610452565b8060005b838110156103ea5781516103d18882610381565b97506103dc8361046d565b9250506001810190506103bd565b5085935050505092915050565b6104008161048b565b82525050565b61040f8161048b565b82525050565b6000602082019050818103600083015261042f8184610399565b905092915050565b600060208201905061044c6000830184610406565b92915050565b6000819050602082019050919050565b600081519050919050565b6000602082019050919050565b600082825260208201905092915050565b6000819050919050565b7f4e487b7100000000000000000000000000000000000000000000000000000000600052603160045260246000fd5b7f4e487b7100000000000000000000000000000000000000000000000000000000600052603260045260246000fd5b600080fd5b6105018161048b565b811461050c57600080fd5b5056fea2646970667358221220cd145f637bf9fef74e3ddf320f5701732db57e52a74bd0d1b8c3275ea31dc0ef64736f6c63430008060033",
  "immutableReferences": {},
  "source": "// SPDX-License-Identifier: MIT\npragma solidity ^0.8.6;\n\n// Array can have a compile-time fixed size or a dynamic size.\n\ncontract Array {\n    // Several ways to initialize an array\n    uint256[] public arr;\n    uint256[] public arr2 = [1, 2, 3];\n\n    // Fixed sized array, all elements initialize to 0\n    uint256[10] public myFixedSizeArr;\n\n    function get(uint256 i) public view returns (uint256) {\n        return arr[i];\n    }\n\n    // Solidity can return the entire array.\n    // But this function should be avoided for\n    // arrays that can grow indefinitely in length.\n    function getArr() public view returns (uint256[] memory) {\n        return arr;\n    }\n\n    function push(uint256 i) public {\n        // Append to array\n        // This will increase the array length by 1.\n        arr.push(i);\n    }\n\n    function pop() public {\n        // Remove last element from array\n        // This will decrease the array length by 1\n        arr.pop();\n    }\n\n    function getLength() public view returns (uint256) {\n        return arr.length;\n    }\n\n    function remove(uint256 index) public {\n        // Delete does not change the array length.\n        // It resets the value at index to it's default value,\n        // in this case 0\n        delete arr[index];\n    }\n}\n\ncontract CompactArray {\n    uint256[] public arr;\n\n    // Deleting an element creates a gap in the array.\n    // One trick to keep the array compact is to\n    // move the last element into the place to delete.\n    function remove(uint256 index) public {\n        // Move the last element into the place to delete\n        arr[index] = arr[arr.length - 1];\n        // Remove the last element\n        arr.pop();\n    }\n\n    function test() public {\n        arr.push(1);\n        arr.push(2);\n        arr.push(3);\n        arr.push(4);\n        // // [1, 2, 3, 4]\n\n        remove(1);\n        // // [1, 4, 3]\n\n        remove(2);\n        // [1, 4]\n    }\n}\n",
  "sourcePath": "/home/ayoung/project/Solidity-by-Example/contracts/10Array.sol",
  "compiler": {
    "name": "solc",
    "version": "0.8.6+commit.11564f7e.Emscripten.clang"
  },
  "schemaVersion": "3.3.4",
  "updatedAt": "2021-07-29T06:58:35.461Z",
  "devdoc": {
    "kind": "dev",
    "methods": {},
    "version": 1
  },
  "userdoc": {
    "kind": "user",
    "methods": {},
    "version": 1
  }
}