{
  "contractName": "CompactArray",
  "abi": [
    {
      "inputs": [
        {
          "internalType": "uint256",
          "name": "",
          "type": "uint256"
        }
      ],
      "name": "arr",
      "outputs": [
        {
          "internalType": "uint256",
          "name": "",
          "type": "uint256"
        }
      ],
      "stateMutability": "view",
      "type": "function"
    },
    {
      "inputs": [
        {
          "internalType": "uint256",
          "name": "index",
          "type": "uint256"
        }
      ],
      "name": "remove",
      "outputs": [],
      "stateMutability": "nonpayable",
      "type": "function"
    },
    {
      "inputs": [],
      "name": "test",
      "outputs": [],
      "stateMutability": "nonpayable",
      "type": "function"
    }
  ],
  "bytecode": "0x608060405234801561001057600080fd5b50610384806100206000396000f3fe608060405234801561001057600080fd5b50600436106100415760003560e01c80634cc822151461004657806371e5ee5f14610062578063f8a8fd6d14610092575b600080fd5b610060600480360381019061005b9190610210565b61009c565b005b61007c60048036038101906100779190610210565b610119565b604051610089919061024c565b60405180910390f35b61009a61013d565b005b600060016000805490506100b09190610267565b815481106100c1576100c0610303565b5b9060005260206000200154600082815481106100e0576100df610303565b5b90600052602060002001819055506000805480610100576100ff6102d4565b5b6001900381819060005260206000200160009055905550565b6000818154811061012957600080fd5b906000526020600020016000915090505481565b6000600190806001815401808255809150506001900390600052602060002001600090919091909150556000600290806001815401808255809150506001900390600052602060002001600090919091909150556000600390806001815401808255809150506001900390600052602060002001600090919091909150556000600490806001815401808255809150506001900390600052602060002001600090919091909150556101ef600161009c565b6101f9600261009c565b565b60008135905061020a81610337565b92915050565b60006020828403121561022657610225610332565b5b6000610234848285016101fb565b91505092915050565b6102468161029b565b82525050565b6000602082019050610261600083018461023d565b92915050565b60006102728261029b565b915061027d8361029b565b9250828210156102905761028f6102a5565b5b828203905092915050565b6000819050919050565b7f4e487b7100000000000000000000000000000000000000000000000000000000600052601160045260246000fd5b7f4e487b7100000000000000000000000000000000000000000000000000000000600052603160045260246000fd5b7f4e487b7100000000000000000000000000000000000000000000000000000000600052603260045260246000fd5b600080fd5b6103408161029b565b811461034b57600080fd5b5056fea2646970667358221220ff88042a6ec65f9f07de35242e21f5aad515d9033889bf26c17e3effe57a319164736f6c63430008060033",
  "immutableReferences": {},
  "source": "// SPDX-License-Identifier: MIT\npragma solidity ^0.8.6;\n\n// Array can have a compile-time fixed size or a dynamic size.\n\ncontract Array {\n    // Several ways to initialize an array\n    uint256[] public arr;\n    uint256[] public arr2 = [1, 2, 3];\n\n    // Fixed sized array, all elements initialize to 0\n    uint256[10] public myFixedSizeArr;\n\n    function get(uint256 i) public view returns (uint256) {\n        return arr[i];\n    }\n\n    // Solidity can return the entire array.\n    // But this function should be avoided for\n    // arrays that can grow indefinitely in length.\n    function getArr() public view returns (uint256[] memory) {\n        return arr;\n    }\n\n    function push(uint256 i) public {\n        // Append to array\n        // This will increase the array length by 1.\n        arr.push(i);\n    }\n\n    function pop() public {\n        // Remove last element from array\n        // This will decrease the array length by 1\n        arr.pop();\n    }\n\n    function getLength() public view returns (uint256) {\n        return arr.length;\n    }\n\n    function remove(uint256 index) public {\n        // Delete does not change the array length.\n        // It resets the value at index to it's default value,\n        // in this case 0\n        delete arr[index];\n    }\n}\n\ncontract CompactArray {\n    uint256[] public arr;\n\n    // Deleting an element creates a gap in the array.\n    // One trick to keep the array compact is to\n    // move the last element into the place to delete.\n    function remove(uint256 index) public {\n        // Move the last element into the place to delete\n        arr[index] = arr[arr.length - 1];\n        // Remove the last element\n        arr.pop();\n    }\n\n    function test() public {\n        arr.push(1);\n        arr.push(2);\n        arr.push(3);\n        arr.push(4);\n        // // [1, 2, 3, 4]\n\n        remove(1);\n        // // [1, 4, 3]\n\n        remove(2);\n        // [1, 4]\n    }\n}\n",
  "sourcePath": "/home/ayoung/project/Solidity-by-Example/contracts/10Array.sol",
  "compiler": {
    "name": "solc",
    "version": "0.8.6+commit.11564f7e.Emscripten.clang"
  },
  "schemaVersion": "3.3.4",
  "updatedAt": "2021-07-29T06:58:35.476Z",
  "devdoc": {
    "kind": "dev",
    "methods": {},
    "version": 1
  },
  "userdoc": {
    "kind": "user",
    "methods": {},
    "version": 1
  }
}