{
  "contractName": "DataLocations",
  "abi": [
    {
      "inputs": [
        {
          "internalType": "uint256",
          "name": "",
          "type": "uint256"
        }
      ],
      "name": "arr",
      "outputs": [
        {
          "internalType": "uint256",
          "name": "",
          "type": "uint256"
        }
      ],
      "stateMutability": "view",
      "type": "function"
    },
    {
      "inputs": [],
      "name": "f",
      "outputs": [],
      "stateMutability": "nonpayable",
      "type": "function"
    },
    {
      "inputs": [
        {
          "internalType": "uint256[]",
          "name": "_arr",
          "type": "uint256[]"
        }
      ],
      "name": "g",
      "outputs": [
        {
          "internalType": "uint256[]",
          "name": "",
          "type": "uint256[]"
        }
      ],
      "stateMutability": "nonpayable",
      "type": "function"
    },
    {
      "inputs": [
        {
          "internalType": "uint256[]",
          "name": "_arr",
          "type": "uint256[]"
        }
      ],
      "name": "h",
      "outputs": [],
      "stateMutability": "nonpayable",
      "type": "function"
    }
  ],
  "bytecode": "0x608060405234801561001057600080fd5b50610563806100206000396000f3fe608060405234801561001057600080fd5b506004361061004c5760003560e01c806326121ff01461005157806340dcbb081461005b57806371e5ee5f14610077578063baf71609146100a7575b600080fd5b6100596100d7565b005b61007560048036038101906100709190610264565b610127565b005b610091600480360381019061008c91906102fa565b61012b565b60405161009e91906103dd565b60405180910390f35b6100c160048036038101906100bc91906102b1565b61014f565b6040516100ce91906103bb565b60405180910390f35b6100f7600060016002600060018152602001908152602001600020610156565b60006002600060018152602001908152602001600020905060006040518060200160405280600081525090505050565b5050565b6000818154811061013b57600080fd5b906000526020600020016000915090505481565b6060919050565b505050565b600061016e6101698461041d565b6103f8565b90508083825260208201905082856020860282011115610191576101906104f6565b5b60005b858110156101c157816101a7888261024f565b845260208401935060208301925050600181019050610194565b5050509392505050565b60008083601f8401126101e1576101e06104f1565b5b8235905067ffffffffffffffff8111156101fe576101fd6104ec565b5b60208301915083602082028301111561021a576102196104f6565b5b9250929050565b600082601f830112610236576102356104f1565b5b813561024684826020860161015b565b91505092915050565b60008135905061025e81610516565b92915050565b6000806020838503121561027b5761027a610500565b5b600083013567ffffffffffffffff811115610299576102986104fb565b5b6102a5858286016101cb565b92509250509250929050565b6000602082840312156102c7576102c6610500565b5b600082013567ffffffffffffffff8111156102e5576102e46104fb565b5b6102f184828501610221565b91505092915050565b6000602082840312156103105761030f610500565b5b600061031e8482850161024f565b91505092915050565b6000610333838361039d565b60208301905092915050565b600061034a82610459565b6103548185610471565b935061035f83610449565b8060005b838110156103905781516103778882610327565b975061038283610464565b925050600181019050610363565b5085935050505092915050565b6103a681610482565b82525050565b6103b581610482565b82525050565b600060208201905081810360008301526103d5818461033f565b905092915050565b60006020820190506103f260008301846103ac565b92915050565b6000610402610413565b905061040e828261048c565b919050565b6000604051905090565b600067ffffffffffffffff821115610438576104376104bd565b5b602082029050602081019050919050565b6000819050602082019050919050565b600081519050919050565b6000602082019050919050565b600082825260208201905092915050565b6000819050919050565b61049582610505565b810181811067ffffffffffffffff821117156104b4576104b36104bd565b5b80604052505050565b7f4e487b7100000000000000000000000000000000000000000000000000000000600052604160045260246000fd5b600080fd5b600080fd5b600080fd5b600080fd5b600080fd5b6000601f19601f8301169050919050565b61051f81610482565b811461052a57600080fd5b5056fea26469706673582212200b653b59a29959901028b4afe6fbc4afa2edfa031f996f554ed7f7d3ba9067cd64736f6c63430008060033",
  "immutableReferences": {},
  "source": "// SPDX-License-Identifier: MIT\npragma solidity ^0.8.6;\n\n/* \nData Locations - Storage, Memory and Calldata\nVariables are declared as either storage, memory or calldata to explicitly specify the location of the data.\n\nstorage - variable is a state variable (store on blockchain)\nmemory - variable is in memory and it exists while a function is being called\ncalldata - special data location that contains function arguments, only available for external functions\n*/\n\ncontract DataLocations {\n    uint256[] public arr;\n    mapping(uint256 => address) map;\n    struct MyStruct {\n        uint256 foo;\n    }\n\n    mapping(uint256 => MyStruct) myStructs;\n\n    function f() public {\n        // call _f with state variables\n        _f(arr, map, myStructs[1]);\n\n        // get a struct from a mapping\n        MyStruct storage myStruct = myStructs[1];\n\n        // create a struct in memory\n        MyStruct memory myMemStruct = MyStruct(0);\n    }\n\n    function _f(\n        uint256[] storage _addr,\n        mapping(uint256 => address) storage _map,\n        MyStruct storage _myStruct\n    ) internal {\n        // do something with storage variables\n    }\n\n    // You can return memory variables\n    function g(uint256[] memory _arr) public returns (uint256[] memory) {\n        // do something with memory array\n    }\n\n    function h(uint256[] calldata _arr) external {\n        // do something with calldata array\n    }\n}\n",
  "sourcePath": "/home/ayoung/project/Solidity-by-Example/contracts/13DataLocations.sol",
  "compiler": {
    "name": "solc",
    "version": "0.8.6+commit.11564f7e.Emscripten.clang"
  },
  "schemaVersion": "3.3.4",
  "updatedAt": "2021-07-29T09:20:28.326Z",
  "devdoc": {
    "kind": "dev",
    "methods": {},
    "version": 1
  },
  "userdoc": {
    "kind": "user",
    "methods": {},
    "version": 1
  }
}