{
  "contractName": "Enum",
  "abi": [
    {
      "inputs": [],
      "name": "status",
      "outputs": [
        {
          "internalType": "enum EnumDeclaration.Status",
          "name": "",
          "type": "uint8"
        }
      ],
      "stateMutability": "view",
      "type": "function"
    },
    {
      "inputs": [],
      "name": "get",
      "outputs": [
        {
          "internalType": "enum EnumDeclaration.Status",
          "name": "",
          "type": "uint8"
        }
      ],
      "stateMutability": "view",
      "type": "function"
    },
    {
      "inputs": [
        {
          "internalType": "enum EnumDeclaration.Status",
          "name": "_status",
          "type": "uint8"
        }
      ],
      "name": "set",
      "outputs": [],
      "stateMutability": "nonpayable",
      "type": "function"
    },
    {
      "inputs": [],
      "name": "cancel",
      "outputs": [],
      "stateMutability": "nonpayable",
      "type": "function"
    },
    {
      "inputs": [],
      "name": "reset",
      "outputs": [],
      "stateMutability": "nonpayable",
      "type": "function"
    }
  ],
  "bytecode": "0x608060405234801561001057600080fd5b50610279806100206000396000f3fe608060405234801561001057600080fd5b50600436106100575760003560e01c8063200d2ed21461005c57806324b8ba5f1461007a5780636d4ce63c14610096578063d826f88f146100b4578063ea8a1af0146100be575b600080fd5b6100646100c8565b60405161007191906101ab565b60405180910390f35b610094600480360381019061008f919061016f565b6100d9565b005b61009e610105565b6040516100ab91906101ab565b60405180910390f35b6100bc61011b565b005b6100c661012e565b005b60008054906101000a900460ff1681565b806000806101000a81548160ff021916908360048111156100fd576100fc6101eb565b5b021790555050565b60008060009054906101000a900460ff16905090565b6000806101000a81549060ff0219169055565b60046000806101000a81548160ff02191690836004811115610153576101526101eb565b5b0217905550565b60008135905061016981610233565b92915050565b6000602082840312156101855761018461021a565b5b60006101938482850161015a565b91505092915050565b6101a5816101d9565b82525050565b60006020820190506101c0600083018461019c565b92915050565b60008190506101d48261021f565b919050565b60006101e4826101c6565b9050919050565b7f4e487b7100000000000000000000000000000000000000000000000000000000600052602160045260246000fd5b600080fd5b600581106102305761022f6101eb565b5b50565b6005811061024057600080fd5b5056fea2646970667358221220b090461a53d75765aa8df7a0ac26179ad861eb503e4ab28ca4abe59f72f2795164736f6c63430008060033",
  "immutableReferences": {},
  "source": "// SPDX-License-Identifier: MIT\npragma solidity ^0.8.6;\n\nimport \"./EnumDeclaration.sol\";\n\n/*\nSolidity supports enumerables and they are useful to model choice and keep track of state.\n\nEnums can be declared ouside of a contract.\n*/\ncontract Enum is EnumDeclaration {\n    // Default value is the first element listed in\n    // definition of the type, in this case \"Pending\"\n    Status public status;\n\n    // Returns uint\n    // Pending  - 0\n    // Shipped  - 1\n    // Accepted - 2\n    // Rejected - 3\n    // Canceled - 4\n\n    function get() public view returns (Status) {\n        return status;\n    }\n\n    // Update status by passing uint into input\n    function set(Status _status) public {\n        status = _status;\n    }\n\n    // You can update to a specific enum like this\n    function cancel() public {\n        status = Status.Caceled;\n    }\n\n    // delete resets the enum to it's first value, 0\n    function reset() public {\n        delete status;\n    }\n}\n",
  "sourcePath": "/home/ayoung/project/Solidity-by-Example/contracts/11Enum/11Enum.sol",
  "compiler": {
    "name": "solc",
    "version": "0.8.6+commit.11564f7e.Emscripten.clang"
  },
  "schemaVersion": "3.3.4",
  "updatedAt": "2021-07-29T08:18:00.532Z",
  "devdoc": {
    "kind": "dev",
    "methods": {},
    "version": 1
  },
  "userdoc": {
    "kind": "user",
    "methods": {},
    "version": 1
  }
}