{
  "contractName": "EtherUnits",
  "abi": [
    {
      "inputs": [],
      "name": "isOneEther",
      "outputs": [
        {
          "internalType": "bool",
          "name": "",
          "type": "bool"
        }
      ],
      "stateMutability": "view",
      "type": "function"
    },
    {
      "inputs": [],
      "name": "isOneWei",
      "outputs": [
        {
          "internalType": "bool",
          "name": "",
          "type": "bool"
        }
      ],
      "stateMutability": "view",
      "type": "function"
    },
    {
      "inputs": [],
      "name": "oneEther",
      "outputs": [
        {
          "internalType": "uint256",
          "name": "",
          "type": "uint256"
        }
      ],
      "stateMutability": "view",
      "type": "function"
    },
    {
      "inputs": [],
      "name": "oneWei",
      "outputs": [
        {
          "internalType": "uint256",
          "name": "",
          "type": "uint256"
        }
      ],
      "stateMutability": "view",
      "type": "function"
    }
  ],
  "bytecode": "0x6080604052600160005560018014600160006101000a81548160ff021916908315150217905550670de0b6b3a7640000600255670de0b6b3a76400008014600360006101000a81548160ff02191690831515021790555034801561006257600080fd5b5061019b806100726000396000f3fe608060405234801561001057600080fd5b506004361061004c5760003560e01c806328dc556f146100515780634fb2e0be1461006f578063cf0f5d291461008d578063d297a89f146100ab575b600080fd5b6100596100c9565b6040516100669190610119565b60405180910390f35b6100776100dc565b6040516100849190610134565b60405180910390f35b6100956100e2565b6040516100a29190610119565b60405180910390f35b6100b36100f5565b6040516100c09190610134565b60405180910390f35b600160009054906101000a900460ff1681565b60005481565b600360009054906101000a900460ff1681565b60025481565b6101048161014f565b82525050565b6101138161015b565b82525050565b600060208201905061012e60008301846100fb565b92915050565b6000602082019050610149600083018461010a565b92915050565b60008115159050919050565b600081905091905056fea2646970667358221220cda3eedfc9548fed335504d1b3645ae062c7176de9e1662715c80873b6f43f2564736f6c63430008060033",
  "immutableReferences": {},
  "source": "// SPDX-License-Identifier: MIT\npragma solidity ^0.8.6;\n\n/*\nEther and Wei\nTransactions are paid with ether.\n\nSimilar to how one dollar is equal to 100 cent, one ether is equal to 10 ** 18 wei. */\n\ncontract EtherUnits {\n    uint256 public oneWei = 1 wei;\n    // 1 wei is equal to 1\n    bool public isOneWei = 1 wei == 1;\n\n    uint256 public oneEther = 1 ether;\n    // 1 ether is equal to 10^18 wei\n    bool public isOneEther = 1 ether == 1e18;\n}\n",
  "sourcePath": "/home/ayoung/project/Solidity-by-Example/contracts/05EthandWei.sol",
  "compiler": {
    "name": "solc",
    "version": "0.8.6+commit.11564f7e.Emscripten.clang"
  },
  "schemaVersion": "3.3.4",
  "updatedAt": "2021-07-27T11:24:10.903Z",
  "devdoc": {
    "kind": "dev",
    "methods": {},
    "version": 1
  },
  "userdoc": {
    "kind": "user",
    "methods": {},
    "version": 1
  }
}