{
  "contractName": "Function",
  "abi": [
    {
      "inputs": [
        {
          "internalType": "uint256",
          "name": "",
          "type": "uint256"
        }
      ],
      "name": "arr",
      "outputs": [
        {
          "internalType": "uint256",
          "name": "",
          "type": "uint256"
        }
      ],
      "stateMutability": "view",
      "type": "function"
    },
    {
      "inputs": [],
      "name": "returnMany",
      "outputs": [
        {
          "internalType": "uint256",
          "name": "",
          "type": "uint256"
        },
        {
          "internalType": "bool",
          "name": "",
          "type": "bool"
        },
        {
          "internalType": "uint256",
          "name": "",
          "type": "uint256"
        }
      ],
      "stateMutability": "pure",
      "type": "function"
    },
    {
      "inputs": [],
      "name": "named",
      "outputs": [
        {
          "internalType": "uint256",
          "name": "x",
          "type": "uint256"
        },
        {
          "internalType": "bool",
          "name": "b",
          "type": "bool"
        },
        {
          "internalType": "uint256",
          "name": "y",
          "type": "uint256"
        }
      ],
      "stateMutability": "pure",
      "type": "function"
    },
    {
      "inputs": [],
      "name": "assigned",
      "outputs": [
        {
          "internalType": "uint256",
          "name": "x",
          "type": "uint256"
        },
        {
          "internalType": "bool",
          "name": "b",
          "type": "bool"
        },
        {
          "internalType": "uint256",
          "name": "y",
          "type": "uint256"
        }
      ],
      "stateMutability": "pure",
      "type": "function"
    },
    {
      "inputs": [],
      "name": "destructingAssigments",
      "outputs": [
        {
          "internalType": "uint256",
          "name": "",
          "type": "uint256"
        },
        {
          "internalType": "bool",
          "name": "",
          "type": "bool"
        },
        {
          "internalType": "uint256",
          "name": "",
          "type": "uint256"
        },
        {
          "internalType": "uint256",
          "name": "",
          "type": "uint256"
        },
        {
          "internalType": "uint256",
          "name": "",
          "type": "uint256"
        }
      ],
      "stateMutability": "pure",
      "type": "function"
    },
    {
      "inputs": [
        {
          "internalType": "uint256[]",
          "name": "_arr",
          "type": "uint256[]"
        }
      ],
      "name": "arrayInput",
      "outputs": [],
      "stateMutability": "nonpayable",
      "type": "function"
    },
    {
      "inputs": [],
      "name": "arrayOutput",
      "outputs": [
        {
          "internalType": "uint256[]",
          "name": "",
          "type": "uint256[]"
        }
      ],
      "stateMutability": "view",
      "type": "function"
    }
  ],
  "bytecode": "0x608060405234801561001057600080fd5b50610675806100206000396000f3fe608060405234801561001057600080fd5b506004361061007d5760003560e01c806371e5ee5f1161005b57806371e5ee5f146100e25780638688754414610112578063adb4d99014610132578063f4bb6e6b146101525761007d565b80631990532b1461008257806345f907a8146100a057806353a6aadb146100c0575b600080fd5b61008a61016e565b604051610097919061043c565b60405180910390f35b6100a86101c6565b6040516100b793929190610479565b60405180910390f35b6100c86101db565b6040516100d99594939291906104b0565b60405180910390f35b6100fc60048036038101906100f7919061036c565b61021e565b604051610109919061045e565b60405180910390f35b61011a610242565b60405161012993929190610479565b60405180910390f35b61013a610257565b60405161014993929190610479565b60405180910390f35b61016c60048036038101906101679190610323565b61026d565b005b606060008054806020026020016040519081016040528092919081815260200182805480156101bc57602002820191906000526020600020905b8154815260200190600101908083116101a8575b5050505050905090565b60008060006001806002925092509250909192565b6000806000806000806000806101ef610242565b925092509250600080600460056006925050915084848484849950995099509950995050505050509091929394565b6000818154811061022e57600080fd5b906000526020600020016000915090505481565b60008060006001806002925092509250909192565b6000806000600192506001915060029050909192565b50565b600061028361027e84610528565b610503565b905080838252602082019050828560208602820111156102a6576102a5610608565b5b60005b858110156102d657816102bc888261030e565b8452602084019350602083019250506001810190506102a9565b5050509392505050565b600082601f8301126102f5576102f4610603565b5b8135610305848260208601610270565b91505092915050565b60008135905061031d81610628565b92915050565b60006020828403121561033957610338610612565b5b600082013567ffffffffffffffff8111156103575761035661060d565b5b610363848285016102e0565b91505092915050565b60006020828403121561038257610381610612565b5b60006103908482850161030e565b91505092915050565b60006103a5838361041e565b60208301905092915050565b60006103bc82610564565b6103c6818561057c565b93506103d183610554565b8060005b838110156104025781516103e98882610399565b97506103f48361056f565b9250506001810190506103d5565b5085935050505092915050565b6104188161058d565b82525050565b61042781610599565b82525050565b61043681610599565b82525050565b6000602082019050818103600083015261045681846103b1565b905092915050565b6000602082019050610473600083018461042d565b92915050565b600060608201905061048e600083018661042d565b61049b602083018561040f565b6104a8604083018461042d565b949350505050565b600060a0820190506104c5600083018861042d565b6104d2602083018761040f565b6104df604083018661042d565b6104ec606083018561042d565b6104f9608083018461042d565b9695505050505050565b600061050d61051e565b905061051982826105a3565b919050565b6000604051905090565b600067ffffffffffffffff821115610543576105426105d4565b5b602082029050602081019050919050565b6000819050602082019050919050565b600081519050919050565b6000602082019050919050565b600082825260208201905092915050565b60008115159050919050565b6000819050919050565b6105ac82610617565b810181811067ffffffffffffffff821117156105cb576105ca6105d4565b5b80604052505050565b7f4e487b7100000000000000000000000000000000000000000000000000000000600052604160045260246000fd5b600080fd5b600080fd5b600080fd5b600080fd5b6000601f19601f8301169050919050565b61063181610599565b811461063c57600080fd5b5056fea2646970667358221220f6ff92f4c4f4609562cfc6c08001987d8e293e2b1116ed3324bf480a74356a5364736f6c63430008060033",
  "immutableReferences": {},
  "source": "// SPDX-License-Identifier: MIT\npragma solidity ^0.8.6;\n\n/*\nFunction\nThere are several ways to return outputs from a function.\n\nPublic functions cannot accept certain data types as inputs or outputs\n*/\n\ncontract Function {\n    // Functions can return multiple values.\n    function returnMany()\n        public\n        pure\n        returns (\n            uint256,\n            bool,\n            uint256\n        )\n    {\n        return (1, true, 2);\n    }\n\n    // Return values can be named.\n    function named()\n        public\n        pure\n        returns (\n            uint256 x,\n            bool b,\n            uint256 y\n        )\n    {\n        return (1, true, 2);\n    }\n\n    // Return values can be assigned to their name.\n    // In this case the return statement can be omitted.\n    function assigned()\n        public\n        pure\n        returns (\n            uint256 x,\n            bool b,\n            uint256 y\n        )\n    {\n        x = 1;\n        b = true;\n        y = 2;\n    }\n\n    // Use destructing assignment when calling another\n    // function that returns multiple values.\n    function destructingAssigments()\n        public\n        pure\n        returns (\n            uint256,\n            bool,\n            uint256,\n            uint256,\n            uint256\n        )\n    {\n        (uint256 i, bool b, uint256 j) = returnMany();\n\n        // Values can be left out.\n        (uint256 x, , uint256 y) = (4, 5, 6);\n\n        return (i, b, j, x, y);\n    }\n\n    // Cannot use map for neither input nor output\n\n    // Can use array for input\n    function arrayInput(uint256[] memory _arr) public {}\n\n    uint256[] public arr;\n\n    function arrayOutput() public view returns (uint256[] memory) {\n        return arr;\n    }\n}\n",
  "sourcePath": "/home/ayoung/project/Solidity-by-Example/contracts/14Function.sol",
  "compiler": {
    "name": "solc",
    "version": "0.8.6+commit.11564f7e.Emscripten.clang"
  },
  "schemaVersion": "3.3.4",
  "updatedAt": "2021-07-29T14:34:59.254Z",
  "devdoc": {
    "kind": "dev",
    "methods": {},
    "version": 1
  },
  "userdoc": {
    "kind": "user",
    "methods": {},
    "version": 1
  }
}