{
  "contractName": "Gas",
  "abi": [
    {
      "inputs": [],
      "name": "i",
      "outputs": [
        {
          "internalType": "uint256",
          "name": "",
          "type": "uint256"
        }
      ],
      "stateMutability": "view",
      "type": "function"
    },
    {
      "inputs": [],
      "name": "forver",
      "outputs": [],
      "stateMutability": "nonpayable",
      "type": "function"
    }
  ],
  "bytecode": "0x60806040526000805534801561001457600080fd5b50610180806100246000396000f3fe608060405234801561001057600080fd5b50600436106100365760003560e01c806305195aaf1461003b578063e5aa3d5814610045575b600080fd5b610043610063565b005b61004d61008b565b60405161005a91906100a0565b60405180910390f35b5b60011561008957600160008082825461007d91906100bb565b92505081905550610064565b565b60005481565b61009a81610111565b82525050565b60006020820190506100b56000830184610091565b92915050565b60006100c682610111565b91506100d183610111565b9250827fffffffffffffffffffffffffffffffffffffffffffffffffffffffffffffffff038211156101065761010561011b565b5b828201905092915050565b6000819050919050565b7f4e487b7100000000000000000000000000000000000000000000000000000000600052601160045260246000fdfea264697066735822122071215562171cb654d80b4b711aba5c544f282aec287492f7c4953c48b18dc0ec64736f6c63430008060033",
  "immutableReferences": {},
  "source": "// SPDX-License-Identifier: MIT\npragma solidity ^0.8.6;\n\ncontract Gas {\n    /*   How much ether do you need to pay for a transaction?\nYou pay gas spent * gas price amount of ether, where\n\ngas is a unit of computation\ngas spent is the total amount of gas used in a transaction\ngas price is how much ether you are willing to pay per gas\nTransactions with higher gas price have higher priority to be included in a block.\n\nUnspent gas will be refunded.\n\nGas Limit\nThere are 2 upper bounds to the amount of gas you can spend\n\ngas limit (max amount of gas you're willing to use for your transaction, set by you)\nblock gas limit (max amount of gas allowed in a block, set by the network) */\n    uint256 public i = 0;\n\n    // Using up all of the gas that you send causes your transaction to fail.\n    // State changes are undone.\n    // Gas spent are not refunded.\n\n    function forver() public {\n        // Here we run a loop until all of the gas are spent\n        // and the transaction fails\n        while (true) {\n            i += 1;\n        }\n    }\n}\n",
  "sourcePath": "/home/ayoung/project/Solidity-by-Example/contracts/06Gas.sol",
  "compiler": {
    "name": "solc",
    "version": "0.8.6+commit.11564f7e.Emscripten.clang"
  },
  "schemaVersion": "3.3.4",
  "updatedAt": "2021-07-28T07:04:46.256Z",
  "devdoc": {
    "kind": "dev",
    "methods": {},
    "version": 1
  },
  "userdoc": {
    "kind": "user",
    "methods": {},
    "version": 1
  }
}