{
  "contractName": "IfElse",
  "abi": [
    {
      "inputs": [
        {
          "internalType": "uint256",
          "name": "x",
          "type": "uint256"
        }
      ],
      "name": "foo",
      "outputs": [
        {
          "internalType": "uint256",
          "name": "",
          "type": "uint256"
        }
      ],
      "stateMutability": "pure",
      "type": "function"
    }
  ],
  "bytecode": "0x608060405234801561001057600080fd5b50610158806100206000396000f3fe608060405234801561001057600080fd5b506004361061002b5760003560e01c80632fbebd3814610030575b600080fd5b61004a600480360381019061004591906100a5565b610060565b60405161005791906100e1565b60405180910390f35b6000600a821015610074576000905061008b565b6014821015610086576001905061008b565b600290505b919050565b60008135905061009f8161010b565b92915050565b6000602082840312156100bb576100ba610106565b5b60006100c984828501610090565b91505092915050565b6100db816100fc565b82525050565b60006020820190506100f660008301846100d2565b92915050565b6000819050919050565b600080fd5b610114816100fc565b811461011f57600080fd5b5056fea2646970667358221220276c31cb85ce1194765215e3af5395fee2ec947c129a233a0f42ff5ebcba51ee64736f6c63430008060033",
  "immutableReferences": {},
  "source": "// SPDX-License-Identifier: MIT\npragma solidity ^0.8.6;\n\n// In Solidity support conditional statements if, else if and else.\ncontract IfElse {\n    function foo(uint256 x) public pure returns (uint256) {\n        if (x < 10) {\n            return 0;\n        } else if (x < 20) {\n            return 1;\n        } else {\n            return 2;\n        }\n    }\n}\n",
  "sourcePath": "/home/ayoung/project/Solidity-by-Example/contracts/07IfElse.sol",
  "compiler": {
    "name": "solc",
    "version": "0.8.6+commit.11564f7e.Emscripten.clang"
  },
  "schemaVersion": "3.3.4",
  "updatedAt": "2021-07-28T07:08:32.559Z",
  "devdoc": {
    "kind": "dev",
    "methods": {},
    "version": 1
  },
  "userdoc": {
    "kind": "user",
    "methods": {},
    "version": 1
  }
}