{
  "contractName": "Loop",
  "abi": [
    {
      "inputs": [],
      "name": "loop",
      "outputs": [],
      "stateMutability": "pure",
      "type": "function"
    }
  ],
  "bytecode": "0x608060405234801561001057600080fd5b50610151806100206000396000f3fe608060405234801561001057600080fd5b506004361061002b5760003560e01c8063a92100cb14610030575b600080fd5b61003861003a565b005b60005b600a81101561007657600381141561005457610063565b600581141561006257610076565b5b808061006e906100a3565b91505061003d565b5060005b600a81101561009657808061008e906100a3565b91505061007a565b50565b6000819050919050565b60006100ae82610099565b91507fffffffffffffffffffffffffffffffffffffffffffffffffffffffffffffffff8214156100e1576100e06100ec565b5b600182019050919050565b7f4e487b7100000000000000000000000000000000000000000000000000000000600052601160045260246000fdfea2646970667358221220ef2aa1583b8b7564d914e15c56a909476fb2a79db470386cfb656fc544a30b0d64736f6c63430008060033",
  "immutableReferences": {},
  "source": "// SPDX-License-Identifier: MIT\npragma solidity ^0.8.6;\n\ncontract Loop {\n    function loop() public pure {\n        // For Loop\n        for (uint256 i = 0; i < 10; i++) {\n            if (i == 3) {\n                // Skip to next iteration with continue\n                continue;\n            }\n            if (i == 5) {\n                // Exit loop with break\n                break;\n            }\n        }\n        // while loop\n        uint256 j;\n        while (j < 10) {\n            j++;\n        }\n    }\n}\n",
  "sourcePath": "/home/ayoung/project/Solidity-by-Example/contracts/08Loop.sol",
  "compiler": {
    "name": "solc",
    "version": "0.8.6+commit.11564f7e.Emscripten.clang"
  },
  "schemaVersion": "3.3.4",
  "updatedAt": "2021-07-28T07:31:31.663Z",
  "devdoc": {
    "kind": "dev",
    "methods": {},
    "version": 1
  },
  "userdoc": {
    "kind": "user",
    "methods": {},
    "version": 1
  }
}