{
  "contractName": "Mapping",
  "abi": [
    {
      "inputs": [
        {
          "internalType": "address",
          "name": "",
          "type": "address"
        }
      ],
      "name": "myMap",
      "outputs": [
        {
          "internalType": "uint256",
          "name": "",
          "type": "uint256"
        }
      ],
      "stateMutability": "view",
      "type": "function"
    },
    {
      "inputs": [
        {
          "internalType": "address",
          "name": "_addr",
          "type": "address"
        }
      ],
      "name": "get",
      "outputs": [
        {
          "internalType": "uint256",
          "name": "",
          "type": "uint256"
        }
      ],
      "stateMutability": "view",
      "type": "function"
    },
    {
      "inputs": [
        {
          "internalType": "address",
          "name": "_addr",
          "type": "address"
        },
        {
          "internalType": "uint256",
          "name": "_i",
          "type": "uint256"
        }
      ],
      "name": "set",
      "outputs": [],
      "stateMutability": "nonpayable",
      "type": "function"
    },
    {
      "inputs": [
        {
          "internalType": "address",
          "name": "_addr",
          "type": "address"
        }
      ],
      "name": "remove",
      "outputs": [],
      "stateMutability": "nonpayable",
      "type": "function"
    }
  ],
  "bytecode": "0x608060405234801561001057600080fd5b5061033b806100206000396000f3fe608060405234801561001057600080fd5b506004361061004c5760003560e01c806327cbd5291461005157806329092d0e146100815780633825d8281461009d578063c2bc2efc146100b9575b600080fd5b61006b600480360381019061006691906101ff565b6100e9565b604051610078919061027b565b60405180910390f35b61009b600480360381019061009691906101ff565b610101565b005b6100b760048036038101906100b2919061022c565b610146565b005b6100d360048036038101906100ce91906101ff565b61018d565b6040516100e0919061027b565b60405180910390f35b60006020528060005260406000206000915090505481565b6000808273ffffffffffffffffffffffffffffffffffffffff1673ffffffffffffffffffffffffffffffffffffffff1681526020019081526020016000206000905550565b806000808473ffffffffffffffffffffffffffffffffffffffff1673ffffffffffffffffffffffffffffffffffffffff168152602001908152602001600020819055505050565b60008060008373ffffffffffffffffffffffffffffffffffffffff1673ffffffffffffffffffffffffffffffffffffffff168152602001908152602001600020549050919050565b6000813590506101e4816102d7565b92915050565b6000813590506101f9816102ee565b92915050565b600060208284031215610215576102146102d2565b5b6000610223848285016101d5565b91505092915050565b60008060408385031215610243576102426102d2565b5b6000610251858286016101d5565b9250506020610262858286016101ea565b9150509250929050565b610275816102c8565b82525050565b6000602082019050610290600083018461026c565b92915050565b60006102a1826102a8565b9050919050565b600073ffffffffffffffffffffffffffffffffffffffff82169050919050565b6000819050919050565b600080fd5b6102e081610296565b81146102eb57600080fd5b50565b6102f7816102c8565b811461030257600080fd5b5056fea2646970667358221220a126ca579ccd3021ed66643f4386d62d884c95caf938e8c90aae5bf38b57e28964736f6c63430008060033",
  "immutableReferences": {},
  "source": "// SPDX-License-Identifier: MIT\npragma solidity ^0.8.6;\n\n/*\nMaps are created with the syntax mapping(keyType => valueType).\n\nkeyType can be value types such as uint, address or bytes.\n\nvalueType can be any type including another mapping or an array.\n\nMappings are not iterable.\n*/\n\ncontract Mapping {\n    mapping(address => uint256) public myMap;\n\n    function get(address _addr) public view returns (uint256) {\n        // Mapping always returns a value.\n        // If the value was never set, it will return the default value.\n        return myMap[_addr];\n    }\n\n    function set(address _addr, uint256 _i) public {\n        // Update the value at this address\n        myMap[_addr] = _i;\n    }\n\n    function remove(address _addr) public {\n        // Reset the value to the default value.\n        delete myMap[_addr];\n    }\n}\n\ncontract NestedMapping {\n    // Nested mapping (mapping from address to another mapping)\n    mapping(address => mapping(uint256 => bool)) public nested;\n\n    function get(address _addr1, uint256 _i) public view returns (bool) {\n        // You can get values from a nested mapping\n        // even when it is not initialized\n        return nested[_addr1][_i];\n    }\n\n    function set(\n        address _addr1,\n        uint256 _i,\n        bool _boo\n    ) public {\n        nested[_addr1][_i] = _boo;\n    }\n\n    function remove(address _addr1, uint256 _i) public {\n        delete nested[_addr1][_i];\n    }\n}\n",
  "sourcePath": "/home/ayoung/project/Solidity-by-Example/contracts/09Mapping.sol",
  "compiler": {
    "name": "solc",
    "version": "0.8.6+commit.11564f7e.Emscripten.clang"
  },
  "schemaVersion": "3.3.4",
  "updatedAt": "2021-07-28T09:57:24.351Z",
  "devdoc": {
    "kind": "dev",
    "methods": {},
    "version": 1
  },
  "userdoc": {
    "kind": "user",
    "methods": {},
    "version": 1
  }
}