{
  "contractName": "NestedMapping",
  "abi": [
    {
      "inputs": [
        {
          "internalType": "address",
          "name": "",
          "type": "address"
        },
        {
          "internalType": "uint256",
          "name": "",
          "type": "uint256"
        }
      ],
      "name": "nested",
      "outputs": [
        {
          "internalType": "bool",
          "name": "",
          "type": "bool"
        }
      ],
      "stateMutability": "view",
      "type": "function"
    },
    {
      "inputs": [
        {
          "internalType": "address",
          "name": "_addr1",
          "type": "address"
        },
        {
          "internalType": "uint256",
          "name": "_i",
          "type": "uint256"
        }
      ],
      "name": "get",
      "outputs": [
        {
          "internalType": "bool",
          "name": "",
          "type": "bool"
        }
      ],
      "stateMutability": "view",
      "type": "function"
    },
    {
      "inputs": [
        {
          "internalType": "address",
          "name": "_addr1",
          "type": "address"
        },
        {
          "internalType": "uint256",
          "name": "_i",
          "type": "uint256"
        },
        {
          "internalType": "bool",
          "name": "_boo",
          "type": "bool"
        }
      ],
      "name": "set",
      "outputs": [],
      "stateMutability": "nonpayable",
      "type": "function"
    },
    {
      "inputs": [
        {
          "internalType": "address",
          "name": "_addr1",
          "type": "address"
        },
        {
          "internalType": "uint256",
          "name": "_i",
          "type": "uint256"
        }
      ],
      "name": "remove",
      "outputs": [],
      "stateMutability": "nonpayable",
      "type": "function"
    }
  ],
  "bytecode": "0x608060405234801561001057600080fd5b50610412806100206000396000f3fe608060405234801561001057600080fd5b506004361061004c5760003560e01c80630b1391941461005157806314bd0a7b1461006d578063abe7f1ab1461009d578063b464631b146100b9575b600080fd5b61006b600480360381019061006691906102cd565b6100e9565b005b6100876004803603810190610082919061028d565b610155565b604051610094919061032f565b60405180910390f35b6100b760048036038101906100b2919061028d565b610184565b005b6100d360048036038101906100ce919061028d565b6101e7565b6040516100e0919061032f565b60405180910390f35b806000808573ffffffffffffffffffffffffffffffffffffffff1673ffffffffffffffffffffffffffffffffffffffff168152602001908152602001600020600084815260200190815260200160002060006101000a81548160ff021916908315150217905550505050565b60006020528160005260406000206020528060005260406000206000915091509054906101000a900460ff1681565b6000808373ffffffffffffffffffffffffffffffffffffffff1673ffffffffffffffffffffffffffffffffffffffff168152602001908152602001600020600082815260200190815260200160002060006101000a81549060ff02191690555050565b60008060008473ffffffffffffffffffffffffffffffffffffffff1673ffffffffffffffffffffffffffffffffffffffff168152602001908152602001600020600083815260200190815260200160002060009054906101000a900460ff16905092915050565b60008135905061025d81610397565b92915050565b600081359050610272816103ae565b92915050565b600081359050610287816103c5565b92915050565b600080604083850312156102a4576102a3610392565b5b60006102b28582860161024e565b92505060206102c385828601610278565b9150509250929050565b6000806000606084860312156102e6576102e5610392565b5b60006102f48682870161024e565b935050602061030586828701610278565b925050604061031686828701610263565b9150509250925092565b6103298161035c565b82525050565b60006020820190506103446000830184610320565b92915050565b600061035582610368565b9050919050565b60008115159050919050565b600073ffffffffffffffffffffffffffffffffffffffff82169050919050565b6000819050919050565b600080fd5b6103a08161034a565b81146103ab57600080fd5b50565b6103b78161035c565b81146103c257600080fd5b50565b6103ce81610388565b81146103d957600080fd5b5056fea2646970667358221220f4e92c37188149d6be6c12c86cf51cffe876221d00b18551d8770a6e769e1f9164736f6c63430008060033",
  "immutableReferences": {},
  "source": "// SPDX-License-Identifier: MIT\npragma solidity ^0.8.6;\n\n/*\nMaps are created with the syntax mapping(keyType => valueType).\n\nkeyType can be value types such as uint, address or bytes.\n\nvalueType can be any type including another mapping or an array.\n\nMappings are not iterable.\n*/\n\ncontract Mapping {\n    mapping(address => uint256) public myMap;\n\n    function get(address _addr) public view returns (uint256) {\n        // Mapping always returns a value.\n        // If the value was never set, it will return the default value.\n        return myMap[_addr];\n    }\n\n    function set(address _addr, uint256 _i) public {\n        // Update the value at this address\n        myMap[_addr] = _i;\n    }\n\n    function remove(address _addr) public {\n        // Reset the value to the default value.\n        delete myMap[_addr];\n    }\n}\n\ncontract NestedMapping {\n    // Nested mapping (mapping from address to another mapping)\n    mapping(address => mapping(uint256 => bool)) public nested;\n\n    function get(address _addr1, uint256 _i) public view returns (bool) {\n        // You can get values from a nested mapping\n        // even when it is not initialized\n        return nested[_addr1][_i];\n    }\n\n    function set(\n        address _addr1,\n        uint256 _i,\n        bool _boo\n    ) public {\n        nested[_addr1][_i] = _boo;\n    }\n\n    function remove(address _addr1, uint256 _i) public {\n        delete nested[_addr1][_i];\n    }\n}\n",
  "sourcePath": "/home/ayoung/project/Solidity-by-Example/contracts/09Mapping.sol",
  "compiler": {
    "name": "solc",
    "version": "0.8.6+commit.11564f7e.Emscripten.clang"
  },
  "schemaVersion": "3.3.4",
  "updatedAt": "2021-07-28T09:57:24.360Z",
  "devdoc": {
    "kind": "dev",
    "methods": {},
    "version": 1
  },
  "userdoc": {
    "kind": "user",
    "methods": {},
    "version": 1
  }
}