{
  "contractName": "Primitives",
  "abi": [
    {
      "inputs": [],
      "name": "addr",
      "outputs": [
        {
          "internalType": "address",
          "name": "",
          "type": "address"
        }
      ],
      "stateMutability": "view",
      "type": "function"
    },
    {
      "inputs": [],
      "name": "boo",
      "outputs": [
        {
          "internalType": "bool",
          "name": "",
          "type": "bool"
        }
      ],
      "stateMutability": "view",
      "type": "function"
    },
    {
      "inputs": [],
      "name": "defaultAddr",
      "outputs": [
        {
          "internalType": "address",
          "name": "",
          "type": "address"
        }
      ],
      "stateMutability": "view",
      "type": "function"
    },
    {
      "inputs": [],
      "name": "defaultBoo",
      "outputs": [
        {
          "internalType": "bool",
          "name": "",
          "type": "bool"
        }
      ],
      "stateMutability": "view",
      "type": "function"
    },
    {
      "inputs": [],
      "name": "defaultInt",
      "outputs": [
        {
          "internalType": "int256",
          "name": "",
          "type": "int256"
        }
      ],
      "stateMutability": "view",
      "type": "function"
    },
    {
      "inputs": [],
      "name": "defaultUint",
      "outputs": [
        {
          "internalType": "uint256",
          "name": "",
          "type": "uint256"
        }
      ],
      "stateMutability": "view",
      "type": "function"
    },
    {
      "inputs": [],
      "name": "i",
      "outputs": [
        {
          "internalType": "int256",
          "name": "",
          "type": "int256"
        }
      ],
      "stateMutability": "view",
      "type": "function"
    },
    {
      "inputs": [],
      "name": "i256",
      "outputs": [
        {
          "internalType": "int256",
          "name": "",
          "type": "int256"
        }
      ],
      "stateMutability": "view",
      "type": "function"
    },
    {
      "inputs": [],
      "name": "i8",
      "outputs": [
        {
          "internalType": "int8",
          "name": "",
          "type": "int8"
        }
      ],
      "stateMutability": "view",
      "type": "function"
    },
    {
      "inputs": [],
      "name": "u",
      "outputs": [
        {
          "internalType": "uint256",
          "name": "",
          "type": "uint256"
        }
      ],
      "stateMutability": "view",
      "type": "function"
    },
    {
      "inputs": [],
      "name": "u256",
      "outputs": [
        {
          "internalType": "uint256",
          "name": "",
          "type": "uint256"
        }
      ],
      "stateMutability": "view",
      "type": "function"
    },
    {
      "inputs": [],
      "name": "u8",
      "outputs": [
        {
          "internalType": "uint8",
          "name": "",
          "type": "uint8"
        }
      ],
      "stateMutability": "view",
      "type": "function"
    }
  ],
  "bytecode": "0x608060405260016000806101000a81548160ff0219169083151502179055506001600060016101000a81548160ff021916908360ff1602179055506101c8600155607b6002557fffffffffffffffffffffffffffffffffffffffffffffffffffffffffffffffff600360006101000a81548160ff021916908360000b60ff1602179055506101c86004557fffffffffffffffffffffffffffffffffffffffffffffffffffffffffffffff8560055573ae18a61043c34bd938ce4927d0af7c67016a6daf600660006101000a81548173ffffffffffffffffffffffffffffffffffffffff021916908373ffffffffffffffffffffffffffffffffffffffff16021790555034801561010e57600080fd5b506104798061011e6000396000f3fe608060405234801561001057600080fd5b50600436106100b45760003560e01c8063767800de11610071578063767800de1461016d578063921cda741461018b578063ab3a58a3146101a9578063c6a898c5146101c7578063e5aa3d58146101e5578063f2427d3714610203576100b4565b8063074eef3f146100b95780631570c2cb146100d7578063459b1acf146100f55780634b3df200146101135780634c27fd62146101315780635abe622b1461014f575b600080fd5b6100c1610221565b6040516100ce9190610350565b60405180910390f35b6100df610234565b6040516100ec91906103a1565b60405180910390f35b6100fd61023a565b60405161010a91906103a1565b60405180910390f35b61011b610240565b6040516101289190610350565b60405180910390f35b610139610251565b604051610146919061036b565b60405180910390f35b610157610257565b604051610164919061036b565b60405180910390f35b61017561025d565b6040516101829190610335565b60405180910390f35b610193610283565b6040516101a09190610386565b60405180910390f35b6101b1610296565b6040516101be91906103bc565b60405180910390f35b6101cf6102a9565b6040516101dc91906103a1565b60405180910390f35b6101ed6102af565b6040516101fa919061036b565b60405180910390f35b61020b6102b5565b6040516102189190610335565b60405180910390f35b600660149054906101000a900460ff1681565b60075481565b60015481565b60008054906101000a900460ff1681565b60045481565b60085481565b600660009054906101000a900473ffffffffffffffffffffffffffffffffffffffff1681565b600360009054906101000a900460000b81565b600060019054906101000a900460ff1681565b60025481565b60055481565b600960009054906101000a900473ffffffffffffffffffffffffffffffffffffffff1681565b6102e4816103d7565b82525050565b6102f3816103e9565b82525050565b610302816103f5565b82525050565b610311816103ff565b82525050565b6103208161042c565b82525050565b61032f81610436565b82525050565b600060208201905061034a60008301846102db565b92915050565b600060208201905061036560008301846102ea565b92915050565b600060208201905061038060008301846102f9565b92915050565b600060208201905061039b6000830184610308565b92915050565b60006020820190506103b66000830184610317565b92915050565b60006020820190506103d16000830184610326565b92915050565b60006103e28261040c565b9050919050565b60008115159050919050565b6000819050919050565b60008160000b9050919050565b600073ffffffffffffffffffffffffffffffffffffffff82169050919050565b6000819050919050565b600060ff8216905091905056fea2646970667358221220b26a8f2ef6026e5fa6cfbb73fe4de0305165775134ba7d6657a050bc60084bf764736f6c63430008060033",
  "immutableReferences": {},
  "source": "// SPDX-License-Identifier: MIT\npragma solidity ^0.8.6;\n\n// Primitive Data Types\n// Primitive data types available in Solidity are:\n// - boolean\n// - uint\n// - int\n// - address\n\ncontract Primitives {\n    bool public boo = true;\n\n    /*\n    uint stands for unsigned integer, meaning non negative integers\n    different sizes are available\n        uint8   ranges from 0 to 2 ** 8 - 1\n        uint16  ranges from 0 to 2 ** 16 - 1\n        ...\n        uint256 ranges from 0 to 2 ** 256 - 1\n    */\n    uint8 public u8 = 1;\n    uint256 public u256 = 456;\n    uint256 public u = 123; //uin is an alias for uint256;\n\n    /*\n    Negative numbers are allowed for int types.\n    Like uint, different ranges are available from uint8 to uint256\n    */\n    int8 public i8 = -1;\n    int256 public i256 = 456;\n    int256 public i = -123; // int is same as int256\n\n    address public addr = 0xAe18A61043c34bD938Ce4927d0AF7c67016a6DAf;\n\n    // Default values\n    // Unassigned variables have a default value\n    bool public defaultBoo; // false\n    uint256 public defaultUint; // 0\n    int256 public defaultInt; // 0\n    address public defaultAddr; // 0x0000000000000000000000000000000000000000\n}\n",
  "sourcePath": "/home/ayoung/project/Solidity-by-Example/contracts/02PrimitiveDataTypes.sol",
  "compiler": {
    "name": "solc",
    "version": "0.8.6+commit.11564f7e.Emscripten.clang"
  },
  "schemaVersion": "3.3.4",
  "updatedAt": "2021-07-27T10:19:01.716Z",
  "devdoc": {
    "kind": "dev",
    "methods": {},
    "version": 1
  },
  "userdoc": {
    "kind": "user",
    "methods": {},
    "version": 1
  }
}