{
  "contractName": "SimpleStorage",
  "abi": [
    {
      "inputs": [],
      "name": "num",
      "outputs": [
        {
          "internalType": "uint256",
          "name": "",
          "type": "uint256"
        }
      ],
      "stateMutability": "view",
      "type": "function"
    },
    {
      "inputs": [
        {
          "internalType": "uint256",
          "name": "_num",
          "type": "uint256"
        }
      ],
      "name": "set",
      "outputs": [],
      "stateMutability": "nonpayable",
      "type": "function"
    },
    {
      "inputs": [],
      "name": "get",
      "outputs": [
        {
          "internalType": "uint256",
          "name": "",
          "type": "uint256"
        }
      ],
      "stateMutability": "view",
      "type": "function"
    }
  ],
  "bytecode": "0x608060405234801561001057600080fd5b5061017f806100206000396000f3fe608060405234801561001057600080fd5b50600436106100415760003560e01c80634e70b1dc1461004657806360fe47b1146100645780636d4ce63c14610080575b600080fd5b61004e61009e565b60405161005b9190610108565b60405180910390f35b61007e600480360381019061007991906100cc565b6100a4565b005b6100886100ae565b6040516100959190610108565b60405180910390f35b60005481565b8060008190555050565b60008054905090565b6000813590506100c681610132565b92915050565b6000602082840312156100e2576100e161012d565b5b60006100f0848285016100b7565b91505092915050565b61010281610123565b82525050565b600060208201905061011d60008301846100f9565b92915050565b6000819050919050565b600080fd5b61013b81610123565b811461014657600080fd5b5056fea2646970667358221220d8511febff84c702a18c320a19b3692a5c627d3795eb00aa8930c0899e5393de64736f6c63430008060033",
  "immutableReferences": {},
  "source": "// SPDX-License-Identifier: MIT\npragma solidity ^0.8.6;\n\n/*Reading and Writing to a State Variable\nTo write or update a state variable you need to send a transaction.\nOn the other hand, you can read state variables, for free, without any transaction fee. */\n\ncontract SimpleStorage {\n    //  State variable to store a number\n    uint256 public num;\n\n    // You need to send a transaction to write to a state variable.\n    function set(uint256 _num) public {\n        num = _num;\n    }\n\n    // You can read from a state variable without sending a transaction.\n    function get() public view returns (uint256) {\n        return num;\n    }\n}\n",
  "sourcePath": "/home/ayoung/project/Solidity-by-Example/contracts/04SimpleStorage.sol",
  "compiler": {
    "name": "solc",
    "version": "0.8.6+commit.11564f7e.Emscripten.clang"
  },
  "schemaVersion": "3.3.4",
  "updatedAt": "2021-07-27T11:19:38.808Z",
  "devdoc": {
    "kind": "dev",
    "methods": {},
    "version": 1
  },
  "userdoc": {
    "kind": "user",
    "methods": {},
    "version": 1
  }
}