{
  "contractName": "Todos",
  "abi": [
    {
      "inputs": [
        {
          "internalType": "uint256",
          "name": "",
          "type": "uint256"
        }
      ],
      "name": "todos",
      "outputs": [
        {
          "internalType": "string",
          "name": "text",
          "type": "string"
        },
        {
          "internalType": "bool",
          "name": "completed",
          "type": "bool"
        }
      ],
      "stateMutability": "view",
      "type": "function"
    },
    {
      "inputs": [
        {
          "internalType": "string",
          "name": "_text",
          "type": "string"
        }
      ],
      "name": "create",
      "outputs": [],
      "stateMutability": "nonpayable",
      "type": "function"
    },
    {
      "inputs": [
        {
          "internalType": "uint256",
          "name": "_index",
          "type": "uint256"
        }
      ],
      "name": "get",
      "outputs": [
        {
          "internalType": "string",
          "name": "text",
          "type": "string"
        },
        {
          "internalType": "bool",
          "name": "completed",
          "type": "bool"
        }
      ],
      "stateMutability": "view",
      "type": "function"
    },
    {
      "inputs": [
        {
          "internalType": "uint256",
          "name": "_index",
          "type": "uint256"
        }
      ],
      "name": "toggleCompleted",
      "outputs": [],
      "stateMutability": "nonpayable",
      "type": "function"
    }
  ],
  "bytecode": "0x608060405234801561001057600080fd5b506108c2806100206000396000f3fe608060405234801561001057600080fd5b506004361061004c5760003560e01c8063455f5024146100515780639507d39a1461006d578063b6a46b3b1461009e578063bc8bc2b4146100ba575b600080fd5b61006b600480360381019061006691906105f1565b6100eb565b005b610087600480360381019061008291906105f1565b610142565b604051610095929190610666565b60405180910390f35b6100b860048036038101906100b391906105a8565b610217565b005b6100d460048036038101906100cf91906105f1565b61039b565b6040516100e2929190610666565b60405180910390f35b6000808281548110610100576100ff6107f2565b5b906000526020600020906002020190508060010160009054906101000a900460ff16158160010160006101000a81548160ff0219169083151502179055505050565b60606000806000848154811061015b5761015a6107f2565b5b90600052602060002090600202019050806000018160010160009054906101000a900460ff1681805461018d90610760565b80601f01602080910402602001604051908101604052809291908181526020018280546101b990610760565b80156102065780601f106101db57610100808354040283529160200191610206565b820191906000526020600020905b8154815290600101906020018083116101e957829003601f168201915b505050505091509250925050915091565b600060405180604001604052808381526020016000151581525090806001815401808255809150506001900390600052602060002090600202016000909190919091506000820151816000019080519060200190610276929190610464565b5060208201518160010160006101000a81548160ff02191690831515021790555050506000604051806040016040528083815260200160001515815250908060018154018082558091505060019003906000526020600020906002020160009091909190915060008201518160000190805190602001906102f8929190610464565b5060208201518160010160006101000a81548160ff02191690831515021790555050506103236104ea565b81816000018190525060008190806001815401808255809150506001900390600052602060002090600202016000909190919091506000820151816000019080519060200190610374929190610464565b5060208201518160010160006101000a81548160ff02191690831515021790555050505050565b600081815481106103ab57600080fd5b90600052602060002090600202016000915090508060000180546103ce90610760565b80601f01602080910402602001604051908101604052809291908181526020018280546103fa90610760565b80156104475780601f1061041c57610100808354040283529160200191610447565b820191906000526020600020905b81548152906001019060200180831161042a57829003601f168201915b5050505050908060010160009054906101000a900460ff16905082565b82805461047090610760565b90600052602060002090601f01602090048101928261049257600085556104d9565b82601f106104ab57805160ff19168380011785556104d9565b828001600101855582156104d9579182015b828111156104d85782518255916020019190600101906104bd565b5b5090506104e69190610506565b5090565b6040518060400160405280606081526020016000151581525090565b5b8082111561051f576000816000905550600101610507565b5090565b6000610536610531846106bb565b610696565b90508281526020810184848401111561055257610551610855565b5b61055d84828561071e565b509392505050565b600082601f83011261057a57610579610850565b5b813561058a848260208601610523565b91505092915050565b6000813590506105a281610875565b92915050565b6000602082840312156105be576105bd61085f565b5b600082013567ffffffffffffffff8111156105dc576105db61085a565b5b6105e884828501610565565b91505092915050565b6000602082840312156106075761060661085f565b5b600061061584828501610593565b91505092915050565b61062781610708565b82525050565b6000610638826106ec565b61064281856106f7565b935061065281856020860161072d565b61065b81610864565b840191505092915050565b60006040820190508181036000830152610680818561062d565b905061068f602083018461061e565b9392505050565b60006106a06106b1565b90506106ac8282610792565b919050565b6000604051905090565b600067ffffffffffffffff8211156106d6576106d5610821565b5b6106df82610864565b9050602081019050919050565b600081519050919050565b600082825260208201905092915050565b60008115159050919050565b6000819050919050565b82818337600083830152505050565b60005b8381101561074b578082015181840152602081019050610730565b8381111561075a576000848401525b50505050565b6000600282049050600182168061077857607f821691505b6020821081141561078c5761078b6107c3565b5b50919050565b61079b82610864565b810181811067ffffffffffffffff821117156107ba576107b9610821565b5b80604052505050565b7f4e487b7100000000000000000000000000000000000000000000000000000000600052602260045260246000fd5b7f4e487b7100000000000000000000000000000000000000000000000000000000600052603260045260246000fd5b7f4e487b7100000000000000000000000000000000000000000000000000000000600052604160045260246000fd5b600080fd5b600080fd5b600080fd5b600080fd5b6000601f19601f8301169050919050565b61087e81610714565b811461088957600080fd5b5056fea26469706673582212204c7be4740be586af2fcc31001e5fab8b4c53460740c9da0ace294bf2f1c8d77d64736f6c63430008060033",
  "immutableReferences": {},
  "source": "// SPDX-License-Identifier: MIT\npragma solidity ^0.8.6;\n\nimport \"./StructDeclaration.sol\";\n\ncontract Todos {\n    // An array of 'Todo' structs\n    Todo[] public todos;\n\n    function create(string memory _text) public {\n        // 3 ways to initialize a struct\n        // - calling it like a function\n        todos.push(Todo(_text, false));\n\n        // key value mapping\n        todos.push(Todo({text: _text, completed: false}));\n\n        // initialize an empty struct and then update it\n        Todo memory todo;\n        todo.text = _text;\n        // todo.completed initialized to false\n        todos.push(todo);\n    }\n\n    function get(uint256 _index)\n        public\n        view\n        returns (string memory text, bool completed)\n    {\n        Todo storage todo = todos[_index];\n        return (todo.text, todo.completed);\n    }\n\n    // update text\n    function toggleCompleted(uint256 _index) public {\n        Todo storage todo = todos[_index];\n        todo.completed = !todo.completed;\n    }\n}\n",
  "sourcePath": "/home/ayoung/project/Solidity-by-Example/contracts/12Struct/Struct.sol",
  "compiler": {
    "name": "solc",
    "version": "0.8.6+commit.11564f7e.Emscripten.clang"
  },
  "schemaVersion": "3.3.4",
  "updatedAt": "2021-07-29T08:43:46.847Z",
  "devdoc": {
    "kind": "dev",
    "methods": {},
    "version": 1
  },
  "userdoc": {
    "kind": "user",
    "methods": {},
    "version": 1
  }
}