{
  "contractName": "Variables",
  "abi": [
    {
      "inputs": [],
      "name": "num",
      "outputs": [
        {
          "internalType": "uint256",
          "name": "",
          "type": "uint256"
        }
      ],
      "stateMutability": "view",
      "type": "function"
    },
    {
      "inputs": [],
      "name": "text",
      "outputs": [
        {
          "internalType": "string",
          "name": "",
          "type": "string"
        }
      ],
      "stateMutability": "view",
      "type": "function"
    },
    {
      "inputs": [],
      "name": "doSomething",
      "outputs": [],
      "stateMutability": "nonpayable",
      "type": "function"
    }
  ],
  "bytecode": "0x60806040526040518060400160405280600581526020017f48656c6c6f0000000000000000000000000000000000000000000000000000008152506000908051906020019061004f929190610067565b50607b60015534801561006157600080fd5b5061016b565b8280546100739061010a565b90600052602060002090601f01602090048101928261009557600085556100dc565b82601f106100ae57805160ff19168380011785556100dc565b828001600101855582156100dc579182015b828111156100db5782518255916020019190600101906100c0565b5b5090506100e991906100ed565b5090565b5b808211156101065760008160009055506001016100ee565b5090565b6000600282049050600182168061012257607f821691505b602082108114156101365761013561013c565b5b50919050565b7f4e487b7100000000000000000000000000000000000000000000000000000000600052602260045260246000fd5b6102bc8061017a6000396000f3fe608060405234801561001057600080fd5b50600436106100415760003560e01c80631f1bd692146100465780634e70b1dc146100645780638269267914610082575b600080fd5b61004e61008c565b60405161005b919061017e565b60405180910390f35b61006c61011a565b60405161007991906101a0565b60405180910390f35b61008a610120565b005b6000805461009990610214565b80601f01602080910402602001604051908101604052809291908181526020018280546100c590610214565b80156101125780601f106100e757610100808354040283529160200191610112565b820191906000526020600020905b8154815290600101906020018083116100f557829003601f168201915b505050505081565b60015481565b60006101c8905060004290506000339050505050565b6000610141826101bb565b61014b81856101c6565b935061015b8185602086016101e1565b61016481610275565b840191505092915050565b610178816101d7565b82525050565b600060208201905081810360008301526101988184610136565b905092915050565b60006020820190506101b5600083018461016f565b92915050565b600081519050919050565b600082825260208201905092915050565b6000819050919050565b60005b838110156101ff5780820151818401526020810190506101e4565b8381111561020e576000848401525b50505050565b6000600282049050600182168061022c57607f821691505b602082108114156102405761023f610246565b5b50919050565b7f4e487b7100000000000000000000000000000000000000000000000000000000600052602260045260246000fd5b6000601f19601f830116905091905056fea26469706673582212202f7e6cc52348c23d1504e86150886317b45d6590037f2f865bcc3d8126b2b78f64736f6c63430008060033",
  "immutableReferences": {},
  "source": "// SPDX-License-Identifier: MIT\npragma solidity ^0.8.6;\n\n// Variables\n// There are 3 types of variables in Solidity\n\n// local\n//  - declared inside a function\n//  - not stored on the blockchain\n// state\n//  - declared outside a function\n//  - stored on the blockchain\n// global (provides information about the blockchain)\n\ncontract Variables {\n    // State variables are stored on the blockchain.\n    string public text = \"Hello\";\n    uint256 public num = 123;\n\n    function doSomething() public {\n        //Local variables are not saved to the blockchain.\n        uint256 i = 456;\n\n        // Here are some global variables\n        uint256 timestamp = block.timestamp;\n        address sender = msg.sender;\n    }\n}\n",
  "sourcePath": "/home/ayoung/project/Solidity-by-Example/contracts/03Variables.sol",
  "compiler": {
    "name": "solc",
    "version": "0.8.6+commit.11564f7e.Emscripten.clang"
  },
  "schemaVersion": "3.3.4",
  "updatedAt": "2021-07-27T11:19:38.805Z",
  "devdoc": {
    "kind": "dev",
    "methods": {},
    "version": 1
  },
  "userdoc": {
    "kind": "user",
    "methods": {},
    "version": 1
  }
}